{
  "_format": "hh-sol-artifact-1",
  "contractName": "Yearbook",
  "sourceName": "contracts/Yearbook.sol",
  "abi": [
    {
      "anonymous": false,
      "inputs": [
        {
          "indexed": false,
          "internalType": "bytes32",
          "name": "entryId",
          "type": "bytes32"
        },
        {
          "indexed": false,
          "internalType": "address",
          "name": "memoryCreator",
          "type": "address"
        },
        {
          "indexed": false,
          "internalType": "uint256",
          "name": "eventTimestamp",
          "type": "uint256"
        },
        {
          "indexed": false,
          "internalType": "string",
          "name": "memoryCID",
          "type": "string"
        }
      ],
      "name": "newEntryAdded",
      "type": "event"
    },
    {
      "inputs": [
        {
          "internalType": "string",
          "name": "memoryCID",
          "type": "string"
        },
        {
          "internalType": "uint256",
          "name": "eventTimestamp",
          "type": "uint256"
        },
        {
          "internalType": "address[]",
          "name": "friendsList",
          "type": "address[]"
        }
      ],
      "name": "createNewMemory",
      "outputs": [
        {
          "internalType": "address",
          "name": "",
          "type": "address"
        }
      ],
      "stateMutability": "nonpayable",
      "type": "function"
    },
    {
      "inputs": [
        {
          "internalType": "bytes32",
          "name": "",
          "type": "bytes32"
        }
      ],
      "name": "idToEntry",
      "outputs": [
        {
          "internalType": "bytes32",
          "name": "entryId",
          "type": "bytes32"
        },
        {
          "internalType": "string",
          "name": "memoryCID",
          "type": "string"
        },
        {
          "internalType": "address",
          "name": "memoryOwner",
          "type": "address"
        },
        {
          "internalType": "uint256",
          "name": "eventTimestamp",
          "type": "uint256"
        }
      ],
      "stateMutability": "view",
      "type": "function"
    }
  ],
  "bytecode": "0x608060405234801561001057600080fd5b50610a32806100206000396000f3fe608060405234801561001057600080fd5b50600436106100365760003560e01c80631d0658a71461003b5780631deb9a241461006e575b600080fd5b61005560048036038101906100509190610566565b61009e565b6040516100659493929190610769565b60405180910390f35b6100886004803603810190610083919061058f565b610176565b6040516100959190610700565b60405180910390f35b60006020528060005260406000206000915090508060000154908060010180546100c7906108aa565b80601f01602080910402602001604051908101604052809291908181526020018280546100f3906108aa565b80156101405780601f1061011557610100808354040283529160200191610140565b820191906000526020600020905b81548152906001019060200180831161012357829003601f168201915b5050505050908060020160009054906101000a900473ffffffffffffffffffffffffffffffffffffffff16908060040154905084565b600080338460405160200161018c9291906106d4565b6040516020818303038152906040528051906020012090506040518060a0016040528082815260200187878080601f016020809104026020016040519081016040528093929190818152602001838380828437600081840152601f19601f8201169050808301925050505050505081526020013373ffffffffffffffffffffffffffffffffffffffff1681526020018481526020018581525060008083815260200190815260200160002060008201518160000155602082015181600101908051906020019061025d92919061031a565b5060408201518160020160006101000a81548173ffffffffffffffffffffffffffffffffffffffff021916908373ffffffffffffffffffffffffffffffffffffffff16021790555060608201518160030190805190602001906102c19291906103a0565b50608082015181600401559050507f7a2b516fca7cdee721384e623ff811575e533040697066c5c8117677ad6598f4813386898960405161030695949392919061071b565b60405180910390a133915050949350505050565b828054610326906108aa565b90600052602060002090601f016020900481019282610348576000855561038f565b82601f1061036157805160ff191683800117855561038f565b8280016001018555821561038f579182015b8281111561038e578251825591602001919060010190610373565b5b50905061039c919061042a565b5090565b828054828255906000526020600020908101928215610419579160200282015b828111156104185782518260006101000a81548173ffffffffffffffffffffffffffffffffffffffff021916908373ffffffffffffffffffffffffffffffffffffffff160217905550916020019190600101906103c0565b5b509050610426919061042a565b5090565b5b8082111561044357600081600090555060010161042b565b5090565b600061045a610455846107da565b6107b5565b9050808382526020820190508285602086028201111561047957600080fd5b60005b858110156104a9578161048f88826104b3565b84526020840193506020830192505060018101905061047c565b5050509392505050565b6000813590506104c2816109b7565b92915050565b600082601f8301126104d957600080fd5b81356104e9848260208601610447565b91505092915050565b600081359050610501816109ce565b92915050565b60008083601f84011261051957600080fd5b8235905067ffffffffffffffff81111561053257600080fd5b60208301915083600182028301111561054a57600080fd5b9250929050565b600081359050610560816109e5565b92915050565b60006020828403121561057857600080fd5b6000610586848285016104f2565b91505092915050565b600080600080606085870312156105a557600080fd5b600085013567ffffffffffffffff8111156105bf57600080fd5b6105cb87828801610507565b945094505060206105de87828801610551565b925050604085013567ffffffffffffffff8111156105fb57600080fd5b610607878288016104c8565b91505092959194509250565b61061c81610822565b82525050565b61063361062e82610822565b61090d565b82525050565b61064281610834565b82525050565b60006106548385610811565b9350610661838584610868565b61066a83610999565b840190509392505050565b600061068082610806565b61068a8185610811565b935061069a818560208601610877565b6106a381610999565b840191505092915050565b6106b78161085e565b82525050565b6106ce6106c98261085e565b610931565b82525050565b60006106e08285610622565b6014820191506106f082846106bd565b6020820191508190509392505050565b60006020820190506107156000830184610613565b92915050565b60006080820190506107306000830188610639565b61073d6020830187610613565b61074a60408301866106ae565b818103606083015261075d818486610648565b90509695505050505050565b600060808201905061077e6000830187610639565b81810360208301526107908186610675565b905061079f6040830185610613565b6107ac60608301846106ae565b95945050505050565b60006107bf6107d0565b90506107cb82826108dc565b919050565b6000604051905090565b600067ffffffffffffffff8211156107f5576107f461096a565b5b602082029050602081019050919050565b600081519050919050565b600082825260208201905092915050565b600061082d8261083e565b9050919050565b6000819050919050565b600073ffffffffffffffffffffffffffffffffffffffff82169050919050565b6000819050919050565b82818337600083830152505050565b60005b8381101561089557808201518184015260208101905061087a565b838111156108a4576000848401525b50505050565b600060028204905060018216806108c257607f821691505b602082108114156108d6576108d561093b565b5b50919050565b6108e582610999565b810181811067ffffffffffffffff821117156109045761090361096a565b5b80604052505050565b60006109188261091f565b9050919050565b600061092a826109aa565b9050919050565b6000819050919050565b7f4e487b7100000000000000000000000000000000000000000000000000000000600052602260045260246000fd5b7f4e487b7100000000000000000000000000000000000000000000000000000000600052604160045260246000fd5b6000601f19601f8301169050919050565b60008160601b9050919050565b6109c081610822565b81146109cb57600080fd5b50565b6109d781610834565b81146109e257600080fd5b50565b6109ee8161085e565b81146109f957600080fd5b5056fea264697066735822122097f4265a9d688e036aa929663516830750392f15dbdab15451b9b61b7119650764736f6c63430008040033",
  "linkReferences": {},
  "deployedLinkReferences": {}
}